:020000020000FC
:100000004FEF4DBF40E14EBF31E031B90E941400C7
:100010000E941D000E9414000E942600F7CF0E943B
:100020002F000E942F0008950E9442000E9442006B
:100030000E9442000E940F0008950E944B000E94FF
:100040004B000E944B000E940F0008950E942F0059
:100050000E942F000E942F000E942F0008950F93EE
:100060001F932F9300E010E020E023952233E9F75F
:1000700013951133C9F703950436A9F72F911F91F2
:100080000F91089532B90E942F00309532B90E9425
:100090002F00309508953F9331E032B90E942F0030
:1000A0000E942F000E942F00309532B90E942F002D
:0400B0003F910895DF
:00000001FF
