S00C000043312E352E7372656341
S11300000C944C000C9456000C9456000C9456001E
S11300100C9456000C9456000C9456000C94560004
S11300200C9456000C9456000C9456000C945600F4
S11300300C9456000C9456000C9456000C945600E4
S11300400C9456000C9456000C9456000C945600D4
S11300500C9456000C9456000C9456000C945600C4
S11300600C9456000C9456000C9456000C945600B4
S11300700C9456000C9456000C9456000C945600A4
S11300800C9456000C9456000C9456000C94560094
S11300900C9456000C94560011241FBECFEFD0E1EF
S11300A0DEBFCDBF0E9458000C9466000C94000083
S11300B08FEF81B980E281BB80E885BF85BF81E095
S11300C07D9902C082B9FCCF12B8FACFF894FFCF61
S9030000FC
