S00C000043312E362E7372656340
S11300000C944C000C9456000C9456000C9456001E
S11300100C9456000C9456000C9456000C94560004
S11300200C9456000C9456000C9456000C945600F4
S11300300C9456000C9456000C9456000C945600E4
S11300400C9456000C9456000C9456000C945600D4
S11300500C9456000C9456000C9456000C945600C4
S11300600C9456000C9456000C9456000C945600B4
S11300700C9456000C9456000C9456000C945600A4
S11300800C9456000C9456000C9456000C94560094
S11300900C9456000C94560011241FBECFEFD0E1EF
S11300A0DEBFCDBF0E9468000C9496000C94000043
S11300B020E030E02817390751F048EC50E0000008
S11300C0000041505109D9F72F5F3F4FF3CF0895F6
S11300D08FEF81B980E281BB8B9A85B7806885BF39
S11300E085B7806885BFC1E0D0E87D9B03C07B995C
S11300F0FCCF0EC082B1880F82B982B1811101C0D8
S1130100C2B984EF91E00E9458007D9BFECFEFCFEF
S113011082B1869582B982B1811101C0D2B984EFCE
S113012091E00E9458007B9BFECFDFCFF894FFCF75
S9030000FC
