S0230000335F4D6F6F746F726967615F4A7568746D6570756E756A61352E302E73726563CC
S11300000C9456000C9473000C9473000C947300BD
S11300100C9473000C9473000C9473000C94730090
S11300200C9473000C9473000C9473000C94730080
S11300300C9473000C9473000C9473000C94730070
S11300400C9473000C946F020C9473000C94730062
S11300500C9473000C9473000C9473000C94730050
S11300600C9473000C9473000C9473000C94730040
S11300700C9473000C9473000C9473000C94730030
S11300800C94EB020C9473000C9473000C947300A6
S11300900C9473000C9473000C9473000C94730010
S11300A00C9473000C9473000C94730011241FBE01
S11300B0CFEFDAE0DEBFCDBF11E0A0E0B1E0E2EBCC
S11300C0F1E102C005900D92A235B107D9F721E004
S11300D0A2E5B1E001C01D92A336B207E1F70E9488
S11300E023030C94D7080C9400001092B90088E400
S11300F08093B8000895ECEBF0E0108294EA9083CA
S113010090819923ECF79091B900987F9830A1F4ED
S11301108093BB0084E88093BC00ECEBF0E080812A
S11301208823ECF79091B900987F983139F081E0F9
S1130130903429F480E0089581E0089580E00895E2
S113014084E98093BC00ECEBF0E0808184FDFDCF7A
S113015008958093BB0084E88093BC00ECEBF0E04E
S113016080818823ECF79091B900987F81E09832E0
S113017009F480E00895EF92FF920F931F93CF93B9
S1130180DF9300D000D0CDB7DEB7282F207F30E139
S1130190839FC0011124922F9C60998328602A8335
S11301A0982F9C609B8388608C838EE40E947B00E4
S11301B08E010F5F1F4F7E0185E0E80EF11CF801F0
S11301C081918F010E94A9000E151F05C1F70E949D
S11301D0A0000F900F900F900F90DF91CF911F917F
S11301E00F91FF90EF900895EF92FF920F931F935A
S11301F0CF93DF9300D000D0CDB7DEB7282F207F78
S113020030E1839FC0011124922F9D60998329605E
S11302102A83982F9D609B8389608C838EE40E943F
S11302207B008E010F5F1F4F7E0185E0E80EF11CFD
S1130230F80181918F010E94A9000E151F05C1F7D5
S11302400E94A0000F900F900F900F90DF91CF911C
S11302501F910F91FF90EF90089582E00E94BB00E0
S113026088E20E94BB008CE00E94BB0080E80E94F0
S1130270BB000895CF93DF9300D0CDB7DEB71982CA
S113028020E42A838C0F9D1FFC018181860F8068E6
S11302900E94BB000F900F90DF91CF910895EF92D1
S11302A0FF920F931F93CF93DF937C0160E070E084
S11302B080E090E00E943A01F7018081882321F1D7
S11302C087010F5F1F4FC0E0D0E00E94F400219629
S11302D0F80181918F018823B9F0C031D105A9F7C4
S11302E006C00E94F40089918111FBCF0DC060E02B
S11302F070E081E090E00E943A01F7018089882350
S113030019F0E7016196EDCFDF91CF911F910F9125
S1130310FF90EF9008950F931F93CF93DF93CDB782
S1130320DEB7A8970FB6F894DEBF0FBECDBF20E0AE
S113033030E040E251E40E9434050E94A804CB015D
S11303406AE070E00E94C5059F938F937F936F933B
S113035080E091E09F938F938E010F5F1F4F1F9357
S11303600F930E94ED0581E00E94BB00C8010E942A
S11303704F010FB6F894DEBF0FBECDBFA8960FB6DF
S1130380F894DEBF0FBECDBFDF91CF911F910F91C7
S11303900895CF93DF93CDB7DEB7A8970FB6F8943F
S11303A0DEBF0FBECDBF8A3091059CF49F938F931F
S11303B087E191E09F938F93CE0101969F938F9352
S11303C00E94ED050F900F900F900F900F900F90DB
S11303D012C09F938F9387E191E09F938F93CE01F7
S11303E001969F938F930E94ED050F900F900F90AD
S11303F00F900F900F9081E00E94BB00CE010196F8
S11304000E944F01A8960FB6F894DEBF0FBECDBF71
S1130410DF91CF9108950F931F93CF93DF93CDB7BF
S1130420DEB7A8970FB6F894DEBF0FBECDBF9F937B
S11304308F9385E291E09F938F938E010F5F1F4FFF
S11304401F930F930E94ED0581E00E94BB00C80139
S11304500E944F010F900F900F900F900F900F90EC
S1130460A8960FB6F894DEBF0FBECDBFDF91CF9133
S11304701F910F91089581E00E94BB0087E391E0F2
S11304800E944F01089587980895559808956E9A8B
S113049076983F9A4798579A5F988AB180658AB947
S11304A08BB18F7A8BB984B1806C84B92E9A2F98D2
S11304B0249A2C98089510928000E1E8F0E01082CC
S11304C080818B608083109285001092840088E282
S11304D090E09093890080938800789408951F9207
S11304E00F920FB60F9211242F933F938F939F93E4
S11304F091B380E1892781BB809161019091620170
S11305000196909362018093610180915F019091C3
S1130510600101969093600180935F0180915D0179
S113052090915E01019690935E0180935D0120910C
S11305305B0130915C0180916101909162018217AD
S1130540930740F09EB180E489278EB9109262012E
S1130550109261012091590130915A0180915F01FB
S1130560909160018217930740F09BB180E4892742
S11305708BB91092600110925F0120915701309164
S1130580580180915D0190915E018217930738F0C4
S113059085B1805885B910925E0110925D019F91DA
S11305A08F913F912F910F900FBE0F901F90189530
S11305B010929000E1E9F0E0108280818B608083EA
S11305C0109295001092940088E29EE69093990010
S11305D08093980008951F920F920FB60F921124E2
S11305E08F939F9380915501909156010197909319
S11305F05601809355019F918F910F900FBE0F90DC
S11306001F90189524E630E0F901E81BF90BF093EC
S11306105C01E0935B01C901861B970B90935A011F
S113062080935901241B350B3093580120935701B3
S11306305F9A5A9A2C9A089585B7806885BF85B7C2
S1130640806885BF08950E941C030E9475000E9463
S11306502D010E9443020E9445020E9447020E940B
S11306605B020E94D8026DEC7CEC8CEC9DE30E9452
S11306708B01849A10E00F2EFAE0CF2ED12CF02DAE
S11306800F2EFDEC4F2EFCEC5F2E652CFDE37F2E30
S1130690F02D99249394E12C0F2EF5E0AF2EB12C7C
S11306A0F02D6894882481F8CFE6D0E00F2EF3E093
S11306B03F2EF02DF92C83ED90E30197F1F700C064
S11306C00000133079F521C08536910548F08091FA
S11306D05501909156010E94C90180E090E007C045
S11306E0EDEEF2E03197F1F700C0000001962091A1
S11306F0550130915601121613064CF0E1E7F0E073
S113070010821882F092520102C080E090E02091A1
S113071052012223C9F2C301B2010E948B014D99F7
S1130720A6C07FC04D9940C08FE493EC0197F1F7C8
S113073000C00000111123C02DEC3CEC4CEC5DE337
S1130740C301B2010E943C042B013C0120E030E0D3
S113075040E250E40E942F0518164CF40F2EFDECD5
S11307604F2EFCEC5F2E652CFDE37F2EF02DC30194
S1130770B2010E948B017F9B65C01E2D9CCF11305E
S113078009F05DC09AE0C90ED11CE9ECCE16D10483
S11307902CF00F2EFAE0CF2ED12CF02DC6010E94A2
S11307A00B027F9B56C087CF7F9985CF8FE493EC54
S11307B00197F1F700C00000111105C0C6010E94A5
S11307C00B02192D78CF113021F40E943B02182D11
S11307D072CF123009F06FCFB0925601A09255013A
S11307E0109254011092530140E050E062E370E033
S11307F084E690E00E940203E1E7F0E080828882D0
S11308007894132D0F2EFAE0CF2ED12CF02D0F2E2D
S1130810FDEC4F2EFCEC5F2E652CFDE37F2EF02DBE
S11308204ACF8FE493EC0197F1F700C0000084CF26
S1130830EFE4F3EC3197F1F700C00000CACF7F9BDF
S1130840F7CF39CF8FE493EC0197F1F700C00000A4
S1130850B5CFEFE4F3EC3197F1F700C00000B5CF6A
S11308608FE493EC0197F1F700C00000A7CF7F9BC2
S1130870F7CF1E2D20CF5058BB27AA270E94530420
S11308800C94F5040E94E70438F00E94EE0420F072
S113089039F49F3F19F426F40C94E4040EF4E09523
S11308A0E7FB0C94DE04E92F0E94060558F3BA17FF
S11308B0620773078407950720F079F4A6F50C9472
S11308C028050EF4E0950B2EBA2FA02D0B01B901CB
S11308D090010C01CA01A0011124FF27591B99F0B2
S11308E0593F50F4503E68F11A16F040A22F232FBE
S11308F0342F4427585FF3CF469537952795A7950E
S1130900F0405395C9F77EF41F16BA0B620B730BB4
S1130910840BBAF09150A1F0FF0FBB1F661F771F25
S1130920881FC2F70EC0BA0F621F731F841F48F4DA
S1130930879577956795B795F7959E3F08F0B0CF63
S11309409395880F08F09927EE0F9795879508954A
S11309500E94AF046894B1110C94290508950E9473
S11309600E0588F09F5798F0B92F9927B751B0F02A
S1130970E1F0660F771F881F991F1AF0BA95C9F71F
S113098014C0B13091F00E942805B1E008950C9490
S11309902805672F782F8827B85F39F0B93FCCF343
S11309A0869577956795B395D9F73EF4909580959C
S11309B0709561957F4F8F4F9F4F089597F99F676B
S11309C080E870E060E008959FEF80EC08950024D3
S11309D00A941616170618060906089500240A94A0
S11309E012161306140605060895092E0394000C26
S11309F011F4882352F0BB0F40F4BF2B11F460FFB5
S1130A0004C06F5F7F4F8F4F9F4F089557FD9058DD
S1130A10440F551F59F05F3F71F04795880F97FBBE
S1130A20991F61F09F3F79F0879508951216130678
S1130A301406551FF2CF4695F1DF08C016161706A7
S1130A401806991FF1CF86957105610508940895DC
S1130A50E894BB2766277727CB0197F908950E946E
S1130A60A10508F48FEF08950E9447050C94F5043E
S1130A700E94E70438F00E94EE0420F0952311F060
S1130A800C94DE040C94E40411240C9429050E94B3
S1130A90060570F3959FC1F3950F50E0551F629FB3
S1130AA0F001729FBB27F00DB11D639FAA27F00DC3
S1130AB0B11DAA1F649F6627B00DA11D661F829FEA
S1130AC02227B00DA11D621F739FB00DA11D621FCF
S1130AD0839FA00D611D221F749F3327A00D611DEC
S1130AE0231F849F600D211D822F762F6A2F1124CE
S1130AF09F5750409AF0F1F088234AF0EE0FFF1F01
S1130B00BB1F661F771F881F91505040A9F79E3F57
S1130B10510580F00C94DE040C9429055F3FE4F346
S1130B20983ED4F3869577956795B795F795E795AD
S1130B309F5FC1F7FE2B880F911D9695879597F9B6
S1130B400895990F0008550FAA0BE0E8FEEF16165A
S1130B501706E807F907C0F012161306E407F507AD
S1130B6098F0621B730B840B950B39F40A2661F021
S1130B70232B242B252B21F408950A2609F4A140C4
S1130B80A6958FEF811D811D089597FB072E16F4FE
S1130B90009407D077FD09D00E94D90507FC05D041
S1130BA03EF4909581959F4F0895709561957F4F80
S1130BB00895AA1BBB1B51E107C0AA1FBB1FA617A0
S1130BC0B70710F0A61BB70B881F991F5A95A9F7F2
S1130BD080959095BC01CD010895AEE0B0E0E3EFBF
S1130BE0F5E00C94AE080D891E8986E08C831A8387
S1130BF009838FEF9FE79E838D83AE01475E5F4F2E
S1130C006F89788DCE0101960E940F06EF81F885D9
S1130C10E00FF11F10822E96E4E00C94CA08ABE0BA
S1130C20B0E0E5E1F6E00C94A0086C017B018A01D8
S1130C30FC0117821682838181FFCCC1CE0101960B
S1130C403C01F6019381F70193FD859193FF819116
S1130C507F01882309F4BAC1853239F493FD859163
S1130C6093FF81917F01853229F4B60190E00E94BF
S1130C700608E7CF912C212C312CFFE1F315D8F095
S1130C808B3279F038F4803279F08332A1F4232D59
S1130C9020611DC08D3261F0803369F4232D216001
S1130CA016C0832D8260382EE32DE4603E2E2AC0C8
S1130CB0F32DF8601DC037FC2DC020ED280F2A301D
S1130CC040F08E32B9F436FC81C1232D2064322EDB
S1130CD019C036FE06C08AE0989E200D1124922E7B
S1130CE011C0EAE02E9E200D1124222EF32DF06275
S1130CF03F2E08C08C3621F4832D8068382E02C024
S1130D00883641F4F70193FD859193FF81917F012A
S1130D108111B3CF982F9F7D9554933028F40C5FA5
S1130D201F4F9FE399830DC0833631F0833771F0F1
S1130D30833509F059C021C0F801808189830E5F91
S1130D401F4F88248394912C530113C02801F2E08F
S1130D504F0E511CF801A080B18036FE03C0692DEE
S1130D6070E002C06FEF7FEFC5010E94FB074C01EA
S1130D708201F32DFF773F2E16C0280122E0420E98
S1130D80511CF801A080B18036FE03C0692D70E0CB
S1130D9002C06FEF7FEFC5010E94F0074C01F32DF5
S1130DA0F0683F2E820133FC1BC0822D90E0881630
S1130DB09906B0F4B60180E290E00E9406082A94F5
S1130DC0F4CFF50137FC859137FE81915F01B601BF
S1130DD090E00E94060821102A9421E0821A9108CA
S1130DE08114910471F7E8C0843611F0893641F515
S1130DF0F80137FE07C060817181828193810C5FA5
S1130E001F4F08C060817181072E000C880B990B5D
S1130E100E5F1F4FF32DFF763F2E97FF09C090956D
S1130E208095709561957F4F8F4F9F4FF0683F2E4F
S1130E302AE030E0A3010E944208882E861845C0AB
S1130E40853731F4232D2F7EB22E2AE030E025C0E1
S1130E50932D997FB92E8F36C1F018F4883579F027
S1130E60B5C0803719F0883721F0B0C0E92FE061B0
S1130E70BE2EB4FE0DC0FB2DF460BF2E09C034FE9F
S1130E800AC0292F2660B22E06C028E030E005C033
S1130E9020E130E002C020E132E0F801B7FE07C0F3
S1130EA060817181828193810C5F1F4F06C06081D4
S1130EB0718180E090E00E5F1F4FA3010E94420801
S1130EC0882E8618FB2DFF773F2E36FE0DC0232D6E
S1130ED02E7FA22E891458F434FE0BC032FC09C0B4
S1130EE0832D8E7EA82E05C0B82CA32C03C0B82C4D
S1130EF001C0B92CA4FE0FC0FE01E80DF11D8081D4
S1130F00803321F49A2D997EA92E09C0A2FE06C031
S1130F10B394B39404C08A2D867809F0B394A3FCE7
S1130F2011C0A0FE06C0B21488F4280C922C9B18A1
S1130F300EC0B21460F4B60180E290E00E9406088C
S1130F40B394F7CFB21418F42B1802C0982C212CA8
S1130F50A4FE10C0B60180E390E00E940608A2FE41
S1130F6017C0A1FC03C088E790E002C088E590E0C8
S1130F70B6010CC08A2D867859F0A1FE02C08BE21E
S1130F8001C080E2A7FC8DE2B60190E00E94060851
S1130F90891438F4B60180E390E00E9406089A941C
S1130FA0F7CF8A94F301E80DF11D8081B60190E03A
S1130FB00E9406088110F5CF222009F442CEB60122
S1130FC080E290E00E9406082A94F6CFF60186811A
S1130FD0978102C08FEF9FEF2B96E2E10C94BC083F
S1130FE0FC010590615070400110D8F780959095F0
S1130FF08E0F9F1F0895FC016150704001900110F5
S1131000D8F7809590958E0F9F1F08950F931F9387
S1131010CF93DF93FB01238121FD03C08FEF9FEF6B
S11310202CC022FF16C04681578124813581421786
S1131030530744F4A081B1819D012F5F3F4F318359
S113104020838C93268137812F5F3F4F37832683FC
S113105014C08B01EC01FB010084F185E02D09959E
S1131060892BE1F6D80116968D919C9117970196DC
S113107017969C938E931697CE01DF91CF911F9173
S11310800F910895FA01AA27283051F1203181F1F6
S1131090E8946F936E7F6E5F7F4F8F4F9F4FAF4F7C
S11310A0B1E03ED0B4E03CD0670F781F891F9A1F8F
S11310B0A11D680F791F8A1F911DA11D6A0F711D43
S11310C0811D911DA11D20D009F468943F912AE04F
S11310D0269F11243019305D3193DEF6CF01089537
S11310E0462F4770405D4193B3E00FD0C9F7F6CF68
S11310F0462F4F70405D4A3318F0495D31FD405230
S1131100419302D0A9F7EACFB4E0A69597958795C5
S113111077956795BA95C9F70097610571050895A4
S11311209B01AC010A2E0694579547953795279550
S1131130BA95C9F7620F731F841F951FA01D0895E8
S11311402F923F924F925F926F927F928F929F92D3
S1131150AF92BF92CF92DF92EF92FF920F931F93C1
S1131160CF93DF93CDB7DEB7CA1BDB0B0FB6F89472
S1131170DEBF0FBECDBF09942A88398848885F84B2
S11311806E847D848C849B84AA84B984C884DF8023
S1131190EE80FD800C811B81AA81B981CE0FD11D07
S11311A00FB6F894DEBF0FBECDBFED010895F894DD
S10511B0FFCF6B
S11311B257697265206469616D657465723A2025A8
S11311C2642E25646D6D0054696D65206C656674CA
S11311D23A2025640057697265206C656E677468ED
S11311E23A202564636D005265616479212050724E
S11311F265737320533220746F2073746172742E7A
S10512020000E6
S9030000FC
