S00C000043322E322E7372656343
S11300000C944C000C9456000C9456000C9456001E
S11300100C9456000C9456000C9456000C94560004
S11300200C9456000C9456000C9456000C945600F4
S11300300C9456000C9456000C9456000C945600E4
S11300400C9456000C9456000C9456000C945600D4
S11300500C9456000C9456000C9456000C945600C4
S11300600C9456000C9456000C9456000C945600B4
S11300700C9456000C9456000C9456000C945600A4
S11300800C9456000C9456000C9456000C94560094
S11300900C9456000C94560011241FBECFEFD0E1EF
S11300A0DEBFCDBF0E9466000C947C000C9400005F
S11300B084EE80937A0082E480937C00089583E840
S11300C08093800089E08093810008950E94580005
S11300D00E945F0080E284B9EAE7F0E0C8E7D0E07C
S11300E0A8E8B0E005C08881998111969C938E930D
S10F00F0808186FDF8CFFCCFF894FFCF90
S9030000FC
