:020000020000FC
:1000000021E22EBF2FEF2DBF31E031B900E012E029
:100010000E942B000E9434000E942B000E943D0091
:10002000F5CF3F9330E00000000000000000339562
:100030003A3FC9F73F9108950F931F930E94110013
:1000400001501040D9F71F910F91089548EE53E0E9
:100050000E941C0008950E9442000E9442000E94DB
:1000600042000E94260008950E944F000E944F0007
:100070000E944F000E942600089540ED57E00E9424
:100080001C00089532B904EF11E00E941C00309565
:1000900032B904EF11E00E941C003095089531E060
:1000A00032B94CED55E00E941C00309532B944EF56
:0A00B00051E00E941C003F910895EA
:00000001FF
