:100000000C944C000C9469000C9469000C946900E9
:100010000C9469000C9469000C9469000C946900BC
:100020000C9469000C9469000C9469000C946900AC
:100030000C9469000C9469000C9469000C9469009C
:100040000C9469000C9469000C9469000C9469008C
:100050000C9469000C9469000C9469000C9469007C
:100060000C9469000C9469000C9469000C9469006C
:100070000C9469000C9469000C9469000C9469005C
:100080000C9469000C9469000C9469000C9469004C
:100090000C9469000C94690011241FBECFEFD0E1CD
:1000A000DEBFCDBF11E0A0E0B1E0EEE6F4E002C0BB
:1000B00005900D92A630B107D9F721E0A6E0B1E096
:1000C00001C01D92A031B207E1F70E943C010C94DF
:1000D00035020C94000082E680937C0084EC8093CF
:1000E0007A000895EAE7F0E0808186FDFDCF8091F7
:1000F000790024E6829FC00111240895009759F4E5
:100100000895000021503109E1F74F5F5F4F8417D8
:10011000950719F4089540E050E028EC30E0F1CF65
:1001200080E484B920ED37E090E485B1892785B972
:100130008AEA8150F1F721503109B9F785E090E062
:1001400008951F93CF93DF9380E484B9CCE2D1E08C
:1001500010E485B1812785B98AE090E00E947E0095
:100160008FEF8150F1F72197A1F785E090E0DF91C3
:10017000CF911F9108950F931F93CF93DF930E9408
:1001800072000E94C701C8E0D1E000E111E00E94C6
:10019000C20181709078992324F401978E6F9F6F2C
:1001A00001968993C017D10791F7DF91CF911F91E5
:1001B0000F9108950E94900080910601909107018F
:1001C00088309105BCF5FC01E85FFE4F80818130ED
:1001D00049F0811121C014C0FC01E85FFE4F80810D
:1001E000813061F480E882B90E9472000E947E0032
:1001F00012B80E9472000E947E00089581110CC006
:1002000081E082B90E9472000E947E0012B80E94B2
:1002100072000E947E0008950E94DA00809106011B
:100220009091070101969093070180930601883011
:10023000910594F2089585FF06C083FB882780F915
:1002400091E08927089581E00895CF93CFB101C04F
:10025000CFB18C2F0E941B018823D1F382E390E061
:100260000E947E008FB10E941B018111FBCFC3FB56
:10027000882780F9CF91089585B7806885BF85B7B5
:10028000806885BF8FEF81B984B988E281BB0E9405
:100290006B000E94BB000E94DA000F2EF0E1EF2EEF
:1002A000F1E0FF2EF02D1FEFC8E0D1E00E94250104
:1002B0009991891317C012B9809104019091050199
:1002C0000E947E0012B8809106019091070101966C
:1002D00090930701809306010E94DA00CE15DF0596
:1002E00029F7E2CF12B90E94A100DECF8F929F9230
:1002F000AF92BF92CF92DF92EF92FF92CF93DF93B4
:10030000EC01688179818A819B8161157105810584
:10031000910521F464E279ED8BE597E02DE133EF6F
:1003200041E050E00E94D20149015A019B01AC0119
:10033000A7EAB1E40E94F1016B017C01ACEEB4EFDD
:10034000A50194010E94FF01DC01CB018C0D9D1DD4
:10035000AE1DBF1DB7FF03C00197A109B048888338
:100360009983AA83BB839F77DF91CF91FF90EF9012
:10037000DF90CF90BF90AF909F908F9008950E9494
:100380007601089580E091E00E9476010895A0E052
:10039000B0E08093000190930101A0930201B0931B
:1003A00003010895052E97FB1EF400940E94E901B5
:1003B00057FD07D00E94040207FC03D04EF40C94B2
:1003C000E90150954095309521953F4F4F4F5F4F34
:1003D000089590958095709561957F4F8F4F9F4FB1
:1003E00008950E942602A59F900DB49F900DA49F92
:1003F000800D911D11240895B7FF0C94F1010E9406
:10040000F101821B930B0895A1E21A2EAA1BBB1BBC
:10041000FD010DC0AA1FBB1FEE1FFF1FA217B307D0
:10042000E407F50720F0A21BB30BE40BF50B661FE6
:10043000771F881F991F1A9469F7609570958095AA
:1004400090959B01AC01BD01CF010895A29FB00121
:10045000B39FC001A39F700D811D1124911DB29FF8
:0E046000700D811D1124911D0895F894FFCF99
:06046E0001000000F40192
:00000001FF
