:100000000C944C000C9456000C9456000C94560022
:100010000C9456000C9456000C9456000C94560008
:100020000C9456000C9456000C9456000C945600F8
:100030000C9456000C9456000C9456000C945600E8
:100040000C9456000C9456000C9456000C945600D8
:100050000C9456000C9456000C9456000C945600C8
:100060000C9456000C9456000C9456000C945600B8
:100070000C9456000C9456000C9456000C945600A8
:100080000C9456000C9456000C9456000C94560098
:100090000C9456000C94560011241FBECFEFD0E1F3
:1000A000DEBFCDBF0E94C1000C94D7000C940000AD
:1000B0008CE090E09093CD008093CC0088E080931A
:1000C000C90086E08093CA00089584EE80937A0088
:1000D00082E480937C000895E8ECF0E0908195FF45
:1000E000FDCF8093CE0008958091780090917900A3
:1000F0008536910520F480E30E946C000895893CC8
:10010000910520F481E30E946C0008958D3221E076
:10011000920720F482E30E946C000895813921E067
:10012000920720F483E30E946C000895853F21E04C
:10013000920720F484E30E946C000895893522E040
:10014000920720F485E30E946C0008958D3B22E025
:10015000920720F486E30E946C000895813223E028
:10016000920720F487E30E946C000895843893403E
:1001700020F488E30E946C00089589E30E946C00DB
:100180000895CF93DF930E9458000E9465008091EC
:100190007A0086FF07C0CAE7D0E00E947400888119
:1001A00086FDFBCF80E090E0DF91CF910895F89439
:0201B000FFCF7F
:00000001FF
