:100000004BC0000051C000004FC000004DC00000B8
:100010004BC0000049C0000047C0000045C00000C0
:1000200043C0000041C000003FC000003DC00000D0
:100030003BC0000039C0000037C0000035C00000E0
:1000400033C0000031C000002FC000002DC00000F0
:100050002BC0000029C0000027C0000025C0000000
:1000600023C0000021C000001FC000001DC0000010
:100070001BC0000019C0000017C0000015C0000020
:1000800013C0000011C000000FC000000DC0000030
:100090000BC0000009C0000011241FBECFEFD0E14B
:1000A000DEBFCDBF35D03FC0ABCF2FE030E006C0C4
:1000B00000000197E9F72150310919F080E395E735
:1000C000F7CF0895CF93CFEFC2B9EFDF12B8EDDFCE
:1000D000C2B9EBDF12B8E9DFC2B9E7DF12B8E5DF7A
:1000E000CF910895CF93CFEFC2B9DFDFDEDFDDDF41
:1000F00012B8DBDFC2B9D9DFD8DFD7DF12B8D5DF5E
:10010000C2B9D3DFD2DFD1DF12B8CFDFCF910895EC
:100110008FEF81B9D7DFC9DFE5DFC7DFD3DFC5DF09
:0A01200080E090E00895F894FFCF0E
:00000001FF
