S00C000043312E342E7372656342
S11300000C944C000C9456000C9456000C9456001E
S11300100C9456000C9456000C9456000C94560004
S11300200C9456000C9456000C9456000C945600F4
S11300300C9456000C9456000C9456000C945600E4
S11300400C9456000C9456000C9456000C945600D4
S11300500C9456000C9456000C9456000C945600C4
S11300600C9456000C9456000C9456000C945600B4
S11300700C9456000C9456000C9456000C945600A4
S11300800C9456000C9456000C9456000C94560094
S11300900C9456000C94560011241FBECFEFD0E1EF
S11300A0DEBFCDBF0E94C7000C94DE000C9400009C
S11300B0009761F408950000000021503109D9F738
S11300C04F5F5F4F8417950719F4089540E050E09F
S11300D028EC30E0F0CFCF93CFEFC2B984EF91E0BA
S11300E00E94580012B884EF91E00E945800C2B9EF
S11300F084EF91E00E94580012B884EF91E00E94CE
S11301005800C2B984EF91E00E94580012B884EFFD
S113011091E00E945800CF910895CF93CFEFC2B9D8
S113012084EF91E00E94580084EF91E00E9458000F
S113013084EF91E00E94580012B884EF91E00E948D
S11301405800C2B984EF91E00E94580084EF91E016
S11301500E94580084EF91E00E94580012B884EF86
S113016091E00E945800C2B984EF91E00E945800C7
S113017084EF91E00E94580084EF91E00E945800BF
S113018012B884EF91E00E945800CF9108958FEF48
S113019081B90E946B0088EE93E00E9458000E948F
S11301A08D0080ED97E00E9458000E946B0088EE5D
S11301B093E00E94580080E090E00895F894FFCF07
S9030000FC
