:100000000C944C000C9456000C9456000C94560022
:100010000C9456000C9456000C9456000C94560008
:100020000C9456000C9456000C9456000C945600F8
:100030000C9456000C9456000C9456000C945600E8
:100040000C9456000C9458000C9456000C945600D6
:100050000C9456000C9456000C9456000C945600C8
:100060000C9456000C94A5000C9456000C94560069
:100070000C9456000C9456000C9456000C945600A8
:100080000C9456000C9456000C9456000C94560098
:100090000C9456000C94560011241FBECFEFD0E1F3
:1000A000DEBFCDBF0E946D000C9459010C9400007E
:1000B0001F920F920FB60F9211248F9382B18095E9
:1000C00082B98F910F900FBE0F901F901895E8EC9A
:1000D000F0E0808185FFFDCF08958CE090E0909363
:1000E000CD008093CC0088E98093C90086E080939E
:1000F000CA008FEF81B9109285001092840080EDC4
:1001000097E0909389008093880082E080936F004D
:100110008DE0809381007894CEECD0E00F2EF2E554
:10012000EF2EF02D0F2EF1E6FF2EF02D0CE616E649
:100130000E946700E8820E946700F8820E946700C0
:1001400008830E9467001883F3CF1F920F920FB6A7
:100150000F9211248F939F93EF93FF93E8ECF0E0BD
:1001600080818823ECF78091CE00803321F41092B7
:100170006F0012B895C0813371F482E080936F00F4
:10018000109285001092840080ED97E09093890092
:100190008093880085C0823371F482E080936F0081
:1001A000109285001092840088EE93E0909389006D
:1001B0008093880075C0833371F482E080936F0070
:1001C00010928500109284008AE992E09093890051
:1001D0008093880065C0843371F482E080936F005F
:1001E000109285001092840084EF91E09093890032
:1001F0008093880055C0853371F482E080936F004E
:10020000109285001092840080E991E0909389001B
:100210008093880045C0863371F482E080936F003C
:1002200010928500109284008DE491E090938900F3
:100230008093880035C0873371F482E080936F002B
:1002400010928500109284008DE191E090938900D6
:100250008093880025C0883371F482E080936F001A
:1002600010928500109284008AEF90E090938900AC
:100270008093880015C0893371F482E080936F0009
:1002800010928500109284008EED90E0909389008A
:100290008093880005C0883519F415BC8FEF82B9AA
:1002A000FF91EF919F918F910F900FBE0F901F9034
:0602B0001895F894FFCF41
:00000001FF
