:020000020000FC
:100000004FEF4DBF41E24EBF31E031B90E941400C5
:100010000E941D000E9414000E942600F7CF0E943B
:100020002F000E942F0008950E9448000E9448005F
:100030000E9448000E940F0008950E9451000E94F3
:1000400051000E9451000E940F0008950E942F004D
:100050000E942F000E942F000E942F0008950F93EE
:100060001F932F9300E010E020E00000000000004C
:1000700000000000000023952C3EB9F713951D38B1
:1000800099F70395033079F72F911F910F910895F8
:1000900032B90E942F00309532B90E942F0030955E
:1000A000089531E032B90E942F000E942F000E9473
:0C00B0002F00309532B90E942F000895F7
:00000001FF
